:100000000C942A000C943C000C943C000C943C0092
:100010000C943C000C943C000C943C000C943C0070
:100020000C943C000C943C000C943C000C943C0060
:100030000C943C000C943C000C943C000C943C0050
:100040000C943C000C943C000C943C000C943C0040
:100050000C943C0011241FBECFE5D8E0DEBFCDBF1D
:1000600020E0A0E6B0E001C01D92A036B207E1F7A3
:100070000E943E000C9417010C940000CF93DF9374
:100080001F92CDB7DEB740E060E181E00E948300BF
:1000900040E060E281E00E94830041E060E481E0B2
:1000A0000E94830040E060E881E00E94830064E0F9
:1000B00080E00E94EC00198241E061E083E00E9450
:1000C000830040E062E083E00E94830087E690E0E6
:1000D0000E940A01CE0101960E94110189818B368E
:1000E00019F40E94F900F6CF8C3619F40E94F90039
:1000F000F1CF8F3619F40E94F900ECCF8E3651F70C
:100100000E94F900E7CF8130F9F030F08230A1F1A0
:10011000833009F449C00895413041F018F042306D
:1001200051F008958AB3682B6ABB08958AB360952D
:1001300068236ABB08958AB3962F909589238ABB5A
:100140008BB3682B6BBB0895413041F018F04230FF
:1001500051F0089587B3682B67BB089587B3609506
:10016000682367BB089587B3962F9095892387BB33
:1001700088B3682B68BB0895413041F018F04230D5
:1001800051F0089584B3682B64BB089584B36095DF
:10019000682364BB089584B3962F9095892384BB0C
:1001A00085B3682B65BB0895413041F018F04230AB
:1001B00051F0089581B3682B61BB089581B36095B8
:1001C000682361BB089581B3962F9095892381BBE5
:1001D00082B3682B62BB089524E0829FC001112482
:1001E00080618DB960FF709A8DB16695682B6DB98D
:1001F00008956E9A8FB977990AC080E197E225E059
:100200002A95F1F70000779902C00197C1F76E981F
:100210008FB10895549A539A26E820BD89B990BDAC
:1002200008955F9B03C02CB1FC0120830895F894CE
:02023000FFCFFE
:00000001FF
