:100000000C942A000C9434000C9434000C943400AA
:100010000C9434000C9434000C9434000C94340090
:100020000C9434000C9434000C9434000C94340080
:100030000C9434000C9434000C9434000C94340070
:100040000C9434000C9434000C9434000C94340060
:100050000C94340011241FBECFE5D8E0DEBFCDBF25
:100060000E947E000C948B010C940000813051F0B2
:1000700018F0823069F0089540E064E082E00E9468
:10008000C100089540E060E882E00E94C100089548
:1000900040E068E083E00E94C1000895813051F0A3
:1000A00018F0823069F0089541E064E082E00E9437
:1000B0002A01089541E060E882E00E942A01089543
:1000C00041E068E083E00E942A010895813051F008
:1000D00018F0823069F0089540E064E082E00E9408
:1000E0002A01089540E060E882E00E942A01089514
:1000F00040E068E083E00E942A01089541E060E169
:1001000081E00E94C10041E060E281E00E94C10004
:1001100040E060E481E00E94C10041E060E881E0ED
:100120000E94C10044E060E081E00E94660180E03E
:100130000E94360081E00E9436008BE60E947A0120
:10014000882321F080E00E944E00F7CF8CE60E94C9
:100150007A01882321F080E00E946600EECF8EE6CF
:100160000E947A01882321F081E00E944E00E5CFB1
:100170008FE60E947A01882301F381E00E946600E5
:10018000DCCF8130F9F030F08230A1F1833009F416
:1001900049C00895413041F018F0423051F00895BF
:1001A0008AB3682B6ABB08958AB3609568236ABBDB
:1001B00008958AB3962F909589238ABB8BB3682BB9
:1001C0006BBB0895413041F018F0423051F0089572
:1001D00087B3682B67BB089587B36095682367BBB7
:1001E000089587B3962F9095892387BB88B3682B92
:1001F00068BB0895413041F018F0423051F0089545
:1002000084B3682B64BB089584B36095682364BB92
:10021000089584B3962F9095892384BB85B3682B6A
:1002200065BB0895413041F018F0423051F0089517
:1002300081B3682B61BB089581B36095682361BB6E
:10024000089581B3962F9095892381BB82B3682B43
:1002500062BB0895813099F028F08230E9F0833054
:1002600041F10895442331F0413079F58BB3682B87
:100270006BBB08958BB3609568236BBB08954423D3
:1002800031F0413011F588B3682B68BB089588B30D
:100290006095682368BB0895442331F04130A9F488
:1002A00085B3682B65BB089585B36095682365BBEE
:1002B0000895442331F0413041F482B3682B62BB8E
:1002C000089582B36095682362BB0895882319F06E
:1002D000813031F008C0660F660F60616DB903C0F0
:1002E000660F660F6DB940FF709A8DB14695482B29
:1002F0004DB908956E9A8FB977990AC080E197E257
:1003000025E02A95F1F70000779902C00197C1F71F
:0A0310006E988FB10895F894FFCFA6
:00000001FF
